{"abi":[{"type":"constructor","inputs":[{"name":"name_","type":"string","internalType":"string"},{"name":"symbol_","type":"string","internalType":"string"},{"name":"underlyingAsset_","type":"address","internalType":"address"},{"name":"complianceRegistry_","type":"address","internalType":"address"},{"name":"riskOracle_","type":"address","internalType":"address"},{"name":"porOracle_","type":"address","internalType":"address"},{"name":"admin","type":"address","internalType":"address"},{"name":"fundManager","type":"address","internalType":"address"}],"stateMutability":"nonpayable"},{"type":"function","name":"CRE_WORKFLOW_ROLE","inputs":[],"outputs":[{"name":"","type":"bytes32","internalType":"bytes32"}],"stateMutability":"view"},{"type":"function","name":"DEFAULT_ADMIN_ROLE","inputs":[],"outputs":[{"name":"","type":"bytes32","internalType":"bytes32"}],"stateMutability":"view"},{"type":"function","name":"FUND_MANAGER_ROLE","inputs":[],"outputs":[{"name":"","type":"bytes32","internalType":"bytes32"}],"stateMutability":"view"},{"type":"function","name":"aToken","inputs":[],"outputs":[{"name":"","type":"address","internalType":"contract IERC20"}],"stateMutability":"view"},{"type":"function","name":"aavePool","inputs":[],"outputs":[{"name":"","type":"address","internalType":"contract IMockAavePool"}],"stateMutability":"view"},{"type":"function","name":"allowance","inputs":[{"name":"owner","type":"address","internalType":"address"},{"name":"spender","type":"address","internalType":"address"}],"outputs":[{"name":"","type":"uint256","internalType":"uint256"}],"stateMutability":"view"},{"type":"function","name":"approve","inputs":[{"name":"spender","type":"address","internalType":"address"},{"name":"value","type":"uint256","internalType":"uint256"}],"outputs":[{"name":"","type":"bool","internalType":"bool"}],"stateMutability":"nonpayable"},{"type":"function","name":"asset","inputs":[],"outputs":[{"name":"","type":"address","internalType":"address"}],"stateMutability":"view"},{"type":"function","name":"balanceOf","inputs":[{"name":"account","type":"address","internalType":"address"}],"outputs":[{"name":"","type":"uint256","internalType":"uint256"}],"stateMutability":"view"},{"type":"function","name":"cToken","inputs":[],"outputs":[{"name":"","type":"address","internalType":"contract IERC20"}],"stateMutability":"view"},{"type":"function","name":"compoundReserve","inputs":[],"outputs":[{"name":"","type":"address","internalType":"contract IMockCompoundReserve"}],"stateMutability":"view"},{"type":"function","name":"decimals","inputs":[],"outputs":[{"name":"","type":"uint8","internalType":"uint8"}],"stateMutability":"view"},{"type":"function","name":"deposit","inputs":[{"name":"amount","type":"uint256","internalType":"uint256"}],"outputs":[{"name":"shares","type":"uint256","internalType":"uint256"}],"stateMutability":"nonpayable"},{"type":"function","name":"emergencyWithdraw","inputs":[{"name":"to","type":"address","internalType":"address"},{"name":"amount","type":"uint256","internalType":"uint256"}],"outputs":[],"stateMutability":"nonpayable"},{"type":"function","name":"getRoleAdmin","inputs":[{"name":"role","type":"bytes32","internalType":"bytes32"}],"outputs":[{"name":"","type":"bytes32","internalType":"bytes32"}],"stateMutability":"view"},{"type":"function","name":"grantRole","inputs":[{"name":"role","type":"bytes32","internalType":"bytes32"},{"name":"account","type":"address","internalType":"address"}],"outputs":[],"stateMutability":"nonpayable"},{"type":"function","name":"hasRole","inputs":[{"name":"role","type":"bytes32","internalType":"bytes32"},{"name":"account","type":"address","internalType":"address"}],"outputs":[{"name":"","type":"bool","internalType":"bool"}],"stateMutability":"view"},{"type":"function","name":"name","inputs":[],"outputs":[{"name":"","type":"string","internalType":"string"}],"stateMutability":"view"},{"type":"function","name":"pause","inputs":[],"outputs":[],"stateMutability":"nonpayable"},{"type":"function","name":"paused","inputs":[],"outputs":[{"name":"","type":"bool","internalType":"bool"}],"stateMutability":"view"},{"type":"function","name":"rebalance","inputs":[{"name":"strategy","type":"string","internalType":"string"},{"name":"aaveSupplyAmount","type":"uint256","internalType":"uint256"},{"name":"aaveWithdrawAmount","type":"uint256","internalType":"uint256"},{"name":"compSupplyAmount","type":"uint256","internalType":"uint256"},{"name":"compWithdrawAmount","type":"uint256","internalType":"uint256"}],"outputs":[],"stateMutability":"nonpayable"},{"type":"function","name":"renounceRole","inputs":[{"name":"role","type":"bytes32","internalType":"bytes32"},{"name":"callerConfirmation","type":"address","internalType":"address"}],"outputs":[],"stateMutability":"nonpayable"},{"type":"function","name":"revokeRole","inputs":[{"name":"role","type":"bytes32","internalType":"bytes32"},{"name":"account","type":"address","internalType":"address"}],"outputs":[],"stateMutability":"nonpayable"},{"type":"function","name":"setMockProtocols","inputs":[{"name":"_aavePool","type":"address","internalType":"address"},{"name":"_aToken","type":"address","internalType":"address"},{"name":"_compoundReserve","type":"address","internalType":"address"},{"name":"_cToken","type":"address","internalType":"address"}],"outputs":[],"stateMutability":"nonpayable"},{"type":"function","name":"sharePrice","inputs":[],"outputs":[{"name":"price","type":"uint256","internalType":"uint256"}],"stateMutability":"view"},{"type":"function","name":"supportsInterface","inputs":[{"name":"interfaceId","type":"bytes4","internalType":"bytes4"}],"outputs":[{"name":"","type":"bool","internalType":"bool"}],"stateMutability":"view"},{"type":"function","name":"symbol","inputs":[],"outputs":[{"name":"","type":"string","internalType":"string"}],"stateMutability":"view"},{"type":"function","name":"totalAssets","inputs":[],"outputs":[{"name":"","type":"uint256","internalType":"uint256"}],"stateMutability":"view"},{"type":"function","name":"totalSupply","inputs":[],"outputs":[{"name":"","type":"uint256","internalType":"uint256"}],"stateMutability":"view"},{"type":"function","name":"transfer","inputs":[{"name":"to","type":"address","internalType":"address"},{"name":"value","type":"uint256","internalType":"uint256"}],"outputs":[{"name":"","type":"bool","internalType":"bool"}],"stateMutability":"nonpayable"},{"type":"function","name":"transferFrom","inputs":[{"name":"from","type":"address","internalType":"address"},{"name":"to","type":"address","internalType":"address"},{"name":"value","type":"uint256","internalType":"uint256"}],"outputs":[{"name":"","type":"bool","internalType":"bool"}],"stateMutability":"nonpayable"},{"type":"function","name":"unpause","inputs":[],"outputs":[],"stateMutability":"nonpayable"},{"type":"function","name":"withdraw","inputs":[{"name":"shares","type":"uint256","internalType":"uint256"}],"outputs":[{"name":"amount","type":"uint256","internalType":"uint256"}],"stateMutability":"nonpayable"},{"type":"event","name":"Approval","inputs":[{"name":"owner","type":"address","indexed":true,"internalType":"address"},{"name":"spender","type":"address","indexed":true,"internalType":"address"},{"name":"value","type":"uint256","indexed":false,"internalType":"uint256"}],"anonymous":false},{"type":"event","name":"Deposited","inputs":[{"name":"investor","type":"address","indexed":true,"internalType":"address"},{"name":"amount","type":"uint256","indexed":false,"internalType":"uint256"},{"name":"shares","type":"uint256","indexed":false,"internalType":"uint256"}],"anonymous":false},{"type":"event","name":"EmergencyWithdrawal","inputs":[{"name":"to","type":"address","indexed":true,"internalType":"address"},{"name":"amount","type":"uint256","indexed":false,"internalType":"uint256"}],"anonymous":false},{"type":"event","name":"Paused","inputs":[{"name":"account","type":"address","indexed":false,"internalType":"address"}],"anonymous":false},{"type":"event","name":"Rebalanced","inputs":[{"name":"strategy","type":"string","indexed":false,"internalType":"string"},{"name":"timestamp","type":"uint256","indexed":false,"internalType":"uint256"}],"anonymous":false},{"type":"event","name":"RoleAdminChanged","inputs":[{"name":"role","type":"bytes32","indexed":true,"internalType":"bytes32"},{"name":"previousAdminRole","type":"bytes32","indexed":true,"internalType":"bytes32"},{"name":"newAdminRole","type":"bytes32","indexed":true,"internalType":"bytes32"}],"anonymous":false},{"type":"event","name":"RoleGranted","inputs":[{"name":"role","type":"bytes32","indexed":true,"internalType":"bytes32"},{"name":"account","type":"address","indexed":true,"internalType":"address"},{"name":"sender","type":"address","indexed":true,"internalType":"address"}],"anonymous":false},{"type":"event","name":"RoleRevoked","inputs":[{"name":"role","type":"bytes32","indexed":true,"internalType":"bytes32"},{"name":"account","type":"address","indexed":true,"internalType":"address"},{"name":"sender","type":"address","indexed":true,"internalType":"address"}],"anonymous":false},{"type":"event","name":"Transfer","inputs":[{"name":"from","type":"address","indexed":true,"internalType":"address"},{"name":"to","type":"address","indexed":true,"internalType":"address"},{"name":"value","type":"uint256","indexed":false,"internalType":"uint256"}],"anonymous":false},{"type":"event","name":"Unpaused","inputs":[{"name":"account","type":"address","indexed":false,"internalType":"address"}],"anonymous":false},{"type":"event","name":"Withdrawn","inputs":[{"name":"investor","type":"address","indexed":true,"internalType":"address"},{"name":"shares","type":"uint256","indexed":false,"internalType":"uint256"},{"name":"amount","type":"uint256","indexed":false,"internalType":"uint256"}],"anonymous":false},{"type":"error","name":"AccessControlBadConfirmation","inputs":[]},{"type":"error","name":"AccessControlUnauthorizedAccount","inputs":[{"name":"account","type":"address","internalType":"address"},{"name":"neededRole","type":"bytes32","internalType":"bytes32"}]},{"type":"error","name":"ERC20InsufficientAllowance","inputs":[{"name":"spender","type":"address","internalType":"address"},{"name":"allowance","type":"uint256","internalType":"uint256"},{"name":"needed","type":"uint256","internalType":"uint256"}]},{"type":"error","name":"ERC20InsufficientBalance","inputs":[{"name":"sender","type":"address","internalType":"address"},{"name":"balance","type":"uint256","internalType":"uint256"},{"name":"needed","type":"uint256","internalType":"uint256"}]},{"type":"error","name":"ERC20InvalidApprover","inputs":[{"name":"approver","type":"address","internalType":"address"}]},{"type":"error","name":"ERC20InvalidReceiver","inputs":[{"name":"receiver","type":"address","internalType":"address"}]},{"type":"error","name":"ERC20InvalidSender","inputs":[{"name":"sender","type":"address","internalType":"address"}]},{"type":"error","name":"ERC20InvalidSpender","inputs":[{"name":"spender","type":"address","internalType":"address"}]},{"type":"error","name":"EnforcedPause","inputs":[]},{"type":"error","name":"ExpectedPause","inputs":[]},{"type":"error","name":"InsufficientReserves","inputs":[]},{"type":"error","name":"NotCompliant","inputs":[]},{"type":"error","name":"RiskTooHigh","inputs":[]},{"type":"error","name":"Unauthorized","inputs":[]}],"bytecode":{"object":"0x610100604052348015610010575f5ffd5b50604051614a20380380614a2083398181016040528101906100329190610713565b878781600390816100439190610a0c565b5080600490816100539190610a0c565b5050505f73ffffffffffffffffffffffffffffffffffffffff168673ffffffffffffffffffffffffffffffffffffffff16036100c4576040517f08c379a00000000000000000000000000000000000000000000000000000000081526004016100bb90610b35565b60405180910390fd5b5f73ffffffffffffffffffffffffffffffffffffffff168573ffffffffffffffffffffffffffffffffffffffff1603610132576040517f08c379a000000000000000000000000000000000000000000000000000000000815260040161012990610b9d565b60405180910390fd5b5f73ffffffffffffffffffffffffffffffffffffffff168473ffffffffffffffffffffffffffffffffffffffff16036101a0576040517f08c379a000000000000000000000000000000000000000000000000000000000815260040161019790610c05565b60405180910390fd5b5f73ffffffffffffffffffffffffffffffffffffffff168373ffffffffffffffffffffffffffffffffffffffff160361020e576040517f08c379a000000000000000000000000000000000000000000000000000000000815260040161020590610c6d565b60405180910390fd5b5f73ffffffffffffffffffffffffffffffffffffffff168273ffffffffffffffffffffffffffffffffffffffff160361027c576040517f08c379a000000000000000000000000000000000000000000000000000000000815260040161027390610cd5565b60405180910390fd5b5f73ffffffffffffffffffffffffffffffffffffffff168173ffffffffffffffffffffffffffffffffffffffff16036102ea576040517f08c379a00000000000000000000000000000000000000000000000000000000081526004016102e190610d3d565b60405180910390fd5b8573ffffffffffffffffffffffffffffffffffffffff1660808173ffffffffffffffffffffffffffffffffffffffff16815250508473ffffffffffffffffffffffffffffffffffffffff1660a08173ffffffffffffffffffffffffffffffffffffffff16815250508373ffffffffffffffffffffffffffffffffffffffff1660c08173ffffffffffffffffffffffffffffffffffffffff16815250508273ffffffffffffffffffffffffffffffffffffffff1660e08173ffffffffffffffffffffffffffffffffffffffff16815250506103cc5f5f1b8361040b60201b60201c565b506103fd7f0b84ee281e5cf521a9ad54a86fafe78946b157177e231bd8ae785af4d3b3620f8261040b60201b60201c565b505050505050505050610d5b565b5f61041c838361050160201b60201c565b6104f757600160055f8581526020019081526020015f205f015f8473ffffffffffffffffffffffffffffffffffffffff1673ffffffffffffffffffffffffffffffffffffffff1681526020019081526020015f205f6101000a81548160ff02191690831515021790555061049461056560201b60201c565b73ffffffffffffffffffffffffffffffffffffffff168273ffffffffffffffffffffffffffffffffffffffff16847f2f8788117e7eff1d82e926ec794901d17c78024a50270940304540a733656f0d60405160405180910390a4600190506104fb565b5f90505b92915050565b5f60055f8481526020019081526020015f205f015f8373ffffffffffffffffffffffffffffffffffffffff1673ffffffffffffffffffffffffffffffffffffffff1681526020019081526020015f205f9054906101000a900460ff16905092915050565b5f33905090565b5f604051905090565b5f5ffd5b5f5ffd5b5f5ffd5b5f5ffd5b5f601f19601f8301169050919050565b7f4e487b71000000000000000000000000000000000000000000000000000000005f52604160045260245ffd5b6105cb82610585565b810181811067ffffffffffffffff821117156105ea576105e9610595565b5b80604052505050565b5f6105fc61056c565b905061060882826105c2565b919050565b5f67ffffffffffffffff82111561062757610626610595565b5b61063082610585565b9050602081019050919050565b8281835e5f83830152505050565b5f61065d6106588461060d565b6105f3565b90508281526020810184848401111561067957610678610581565b5b61068484828561063d565b509392505050565b5f82601f8301126106a05761069f61057d565b5b81516106b084826020860161064b565b91505092915050565b5f73ffffffffffffffffffffffffffffffffffffffff82169050919050565b5f6106e2826106b9565b9050919050565b6106f2816106d8565b81146106fc575f5ffd5b50565b5f8151905061070d816106e9565b92915050565b5f5f5f5f5f5f5f5f610100898b0312156107305761072f610575565b5b5f89015167ffffffffffffffff81111561074d5761074c610579565b5b6107598b828c0161068c565b985050602089015167ffffffffffffffff81111561077a57610779610579565b5b6107868b828c0161068c565b97505060406107978b828c016106ff565b96505060606107a88b828c016106ff565b95505060806107b98b828c016106ff565b94505060a06107ca8b828c016106ff565b93505060c06107db8b828c016106ff565b92505060e06107ec8b828c016106ff565b9150509295985092959890939650565b5f81519050919050565b7f4e487b71000000000000000000000000000000000000000000000000000000005f52602260045260245ffd5b5f600282049050600182168061084a57607f821691505b60208210810361085d5761085c610806565b5b50919050565b5f819050815f5260205f209050919050565b5f6020601f8301049050919050565b5f82821b905092915050565b5f600883026108bf7fffffffffffffffffffffffffffffffffffffffffffffffffffffffffffffffff82610884565b6108c98683610884565b95508019841693508086168417925050509392505050565b5f819050919050565b5f819050919050565b5f61090d610908610903846108e1565b6108ea565b6108e1565b9050919050565b5f819050919050565b610926836108f3565b61093a61093282610914565b848454610890565b825550505050565b5f5f905090565b610951610942565b61095c81848461091d565b505050565b5b8181101561097f576109745f82610949565b600181019050610962565b5050565b601f8211156109c45761099581610863565b61099e84610875565b810160208510156109ad578190505b6109c16109b985610875565b830182610961565b50505b505050565b5f82821c905092915050565b5f6109e45f19846008026109c9565b1980831691505092915050565b5f6109fc83836109d5565b9150826002028217905092915050565b610a15826107fc565b67ffffffffffffffff811115610a2e57610a2d610595565b5b610a388254610833565b610a43828285610983565b5f60209050601f831160018114610a74575f8415610a62578287015190505b610a6c85826109f1565b865550610ad3565b601f198416610a8286610863565b5f5b82811015610aa957848901518255600182019150602085019450602081019050610a84565b86831015610ac65784890151610ac2601f8916826109d5565b8355505b6001600288020188555050505b505050505050565b5f82825260208201905092915050565b7f496e76616c6964206173736574000000000000000000000000000000000000005f82015250565b5f610b1f600d83610adb565b9150610b2a82610aeb565b602082019050919050565b5f6020820190508181035f830152610b4c81610b13565b9050919050565b7f496e76616c696420636f6d706c69616e636520726567697374727900000000005f82015250565b5f610b87601b83610adb565b9150610b9282610b53565b602082019050919050565b5f6020820190508181035f830152610bb481610b7b565b9050919050565b7f496e76616c6964207269736b206f7261636c65000000000000000000000000005f82015250565b5f610bef601383610adb565b9150610bfa82610bbb565b602082019050919050565b5f6020820190508181035f830152610c1c81610be3565b9050919050565b7f496e76616c696420506f52206f7261636c6500000000000000000000000000005f82015250565b5f610c57601283610adb565b9150610c6282610c23565b602082019050919050565b5f6020820190508181035f830152610c8481610c4b565b9050919050565b7f496e76616c69642061646d696e000000000000000000000000000000000000005f82015250565b5f610cbf600d83610adb565b9150610cca82610c8b565b602082019050919050565b5f6020820190508181035f830152610cec81610cb3565b9050919050565b7f496e76616c69642066756e64206d616e616765720000000000000000000000005f82015250565b5f610d27601483610adb565b9150610d3282610cf3565b602082019050919050565b5f6020820190508181035f830152610d5481610d1b565b9050919050565b60805160a05160c05160e051613c1b610e055f395f611a9601525f81816119c50152611d0401525f8181610ab2015281816118f601528181612a0d0152612adb01525f818161065f01528181610ba801528181610d9101528181610f4f0152818161100801528181611227015281816113710152818161142d015281816116bd01528181611b9401528181611e1b01528181611ee301528181611f96015261204c0152613c1b5ff3fe608060405234801561000f575f5ffd5b50600436106101f9575f3560e01c806357002f0f1161011857806395d89b41116100ab578063a9059cbb1161007a578063a9059cbb14610593578063b6b55f25146105c3578063cac1e251146105f3578063d547741f1461060f578063dd62ed3e1461062b576101f9565b806395d89b411461051b578063a03e4bc314610539578063a0c1f15e14610557578063a217fddf14610575576101f9565b80638456cb59116100e75780638456cb59146104a757806387269729146104b157806391d14854146104cf57806395ccea67146104ff576101f9565b806357002f0f1461041f5780635c975abb1461043b57806369e527da1461045957806370a0823114610477576101f9565b80632e1a7d4d1161019057806336568abe1161015f57806336568abe146103bd57806336aa6928146103d957806338d52e0f146103f75780633f4ba83a14610415576101f9565b80632e1a7d4d146103355780632f2ff15d146103655780632f83a6bc14610381578063313ce5671461039f576101f9565b806318160ddd116101cc57806318160ddd146102995780631aaf1365146102b757806323b872dd146102d5578063248a9ca314610305576101f9565b806301e1d114146101fd57806301ffc9a71461021b57806306fdde031461024b578063095ea7b314610269575b5f5ffd5b61020561065b565b6040516102129190612e3a565b60405180910390f35b61023560048036038101906102309190612eb9565b610904565b6040516102429190612efe565b60405180910390f35b61025361097d565b6040516102609190612f87565b60405180910390f35b610283600480360381019061027e919061302b565b610a0d565b6040516102909190612efe565b60405180910390f35b6102a1610a2f565b6040516102ae9190612e3a565b60405180910390f35b6102bf610a38565b6040516102cc9190613081565b60405180910390f35b6102ef60048036038101906102ea919061309a565b610a5c565b6040516102fc9190612efe565b60405180910390f35b61031f600480360381019061031a9190613114565b610a8a565b60405161032c9190613081565b60405180910390f35b61034f600480360381019061034a919061313f565b610aa7565b60405161035c9190612e3a565b60405180910390f35b61037f600480360381019061037a919061316a565b611136565b005b610389611158565b6040516103969190613081565b60405180910390f35b6103a761117c565b6040516103b491906131c3565b60405180910390f35b6103d760048036038101906103d2919061316a565b611184565b005b6103e16111ff565b6040516103ee9190613237565b60405180910390f35b6103ff611224565b60405161040c919061325f565b60405180910390f35b61041d61124b565b005b61043960048036038101906104349190613278565b611262565b005b6104436114ee565b6040516104509190612efe565b60405180910390f35b610461611503565b60405161046e91906132fc565b60405180910390f35b610491600480360381019061048c9190613315565b611528565b60405161049e9190612e3a565b60405180910390f35b6104af61156d565b005b6104b9611584565b6040516104c69190612e3a565b60405180910390f35b6104e960048036038101906104e4919061316a565b6115d5565b6040516104f69190612efe565b60405180910390f35b6105196004803603810190610514919061302b565b611639565b005b6105236117e8565b6040516105309190612f87565b60405180910390f35b610541611878565b60405161054e9190613360565b60405180910390f35b61055f61189e565b60405161056c91906132fc565b60405180910390f35b61057d6118c3565b60405161058a9190613081565b60405180910390f35b6105ad60048036038101906105a8919061302b565b6118c9565b6040516105ba9190612efe565b60405180910390f35b6105dd60048036038101906105d8919061313f565b6118eb565b6040516105ea9190612e3a565b60405180910390f35b61060d600480360381019061060891906133da565b611ccf565b005b6106296004803603810190610624919061316a565b6120fc565b005b61064560048036038101906106409190613470565b61211e565b6040516106529190612e3a565b60405180910390f35b5f5f7f000000000000000000000000000000000000000000000000000000000000000073ffffffffffffffffffffffffffffffffffffffff166370a08231306040518263ffffffff1660e01b81526004016106b6919061325f565b602060405180830381865afa1580156106d1573d5f5f3e3d5ffd5b505050506040513d601f19601f820116820180604052508101906106f591906134c2565b90505f5f73ffffffffffffffffffffffffffffffffffffffff1660085f9054906101000a900473ffffffffffffffffffffffffffffffffffffffff1673ffffffffffffffffffffffffffffffffffffffff1603610752575f6107ec565b60085f9054906101000a900473ffffffffffffffffffffffffffffffffffffffff1673ffffffffffffffffffffffffffffffffffffffff166370a08231306040518263ffffffff1660e01b81526004016107ac919061325f565b602060405180830381865afa1580156107c7573d5f5f3e3d5ffd5b505050506040513d601f19601f820116820180604052508101906107eb91906134c2565b5b90505f5f73ffffffffffffffffffffffffffffffffffffffff1660075f9054906101000a900473ffffffffffffffffffffffffffffffffffffffff1673ffffffffffffffffffffffffffffffffffffffff1603610849575f6108e3565b60075f9054906101000a900473ffffffffffffffffffffffffffffffffffffffff1673ffffffffffffffffffffffffffffffffffffffff16633af9e669306040518263ffffffff1660e01b81526004016108a3919061325f565b602060405180830381865afa1580156108be573d5f5f3e3d5ffd5b505050506040513d601f19601f820116820180604052508101906108e291906134c2565b5b90508082846108f2919061351a565b6108fc919061351a565b935050505090565b5f7f7965db0b000000000000000000000000000000000000000000000000000000007bffffffffffffffffffffffffffffffffffffffffffffffffffffffff1916827bffffffffffffffffffffffffffffffffffffffffffffffffffffffff191614806109765750610975826121a0565b5b9050919050565b60606003805461098c9061357a565b80601f01602080910402602001604051908101604052809291908181526020018280546109b89061357a565b8015610a035780601f106109da57610100808354040283529160200191610a03565b820191905f5260205f20905b8154815290600101906020018083116109e657829003601f168201915b5050505050905090565b5f5f610a17612209565b9050610a24818585612210565b600191505092915050565b5f600254905090565b7f60137f3902b4a7c1eb490cb23f6a73eb3a3b5233261f6176ab1829a93c95d69281565b5f5f610a66612209565b9050610a73858285612222565b610a7e8585856122b5565b60019150509392505050565b5f60055f8381526020019081526020015f20600101549050919050565b5f610ab06123a5565b7f000000000000000000000000000000000000000000000000000000000000000073ffffffffffffffffffffffffffffffffffffffff1663a200e5d0336040518263ffffffff1660e01b8152600401610b09919061325f565b602060405180830381865afa158015610b24573d5f5f3e3d5ffd5b505050506040513d601f19601f82011682018060405250810190610b4891906135d4565b610b7e576040517f7928610300000000000000000000000000000000000000000000000000000000815260040160405180910390fd5b610b86610a2f565b610b8e61065b565b83610b9991906135ff565b610ba3919061366d565b90505f7f000000000000000000000000000000000000000000000000000000000000000073ffffffffffffffffffffffffffffffffffffffff166370a08231306040518263ffffffff1660e01b8152600401610bff919061325f565b602060405180830381865afa158015610c1a573d5f5f3e3d5ffd5b505050506040513d601f19601f82011682018060405250810190610c3e91906134c2565b905081811015610ffc575f8183610c55919061369d565b90505f73ffffffffffffffffffffffffffffffffffffffff1660085f9054906101000a900473ffffffffffffffffffffffffffffffffffffffff1673ffffffffffffffffffffffffffffffffffffffff1614158015610d4c57508060085f9054906101000a900473ffffffffffffffffffffffffffffffffffffffff1673ffffffffffffffffffffffffffffffffffffffff166370a08231306040518263ffffffff1660e01b8152600401610d0a919061325f565b602060405180830381865afa158015610d25573d5f5f3e3d5ffd5b505050506040513d601f19601f82011682018060405250810190610d4991906134c2565b10155b15610e1657600660019054906101000a900473ffffffffffffffffffffffffffffffffffffffff1673ffffffffffffffffffffffffffffffffffffffff166369328dec7f000000000000000000000000000000000000000000000000000000000000000083306040518463ffffffff1660e01b8152600401610dd0939291906136d0565b6020604051808303815f875af1158015610dec573d5f5f3e3d5ffd5b505050506040513d601f19601f82011682018060405250810190610e1091906134c2565b50610ffa565b5f73ffffffffffffffffffffffffffffffffffffffff1660075f9054906101000a900473ffffffffffffffffffffffffffffffffffffffff1673ffffffffffffffffffffffffffffffffffffffff1614158015610f0b57508060075f9054906101000a900473ffffffffffffffffffffffffffffffffffffffff1673ffffffffffffffffffffffffffffffffffffffff16633af9e669306040518263ffffffff1660e01b8152600401610ec9919061325f565b602060405180830381865afa158015610ee4573d5f5f3e3d5ffd5b505050506040513d601f19601f82011682018060405250810190610f0891906134c2565b10155b15610fbe5760075f9054906101000a900473ffffffffffffffffffffffffffffffffffffffff1673ffffffffffffffffffffffffffffffffffffffff1663f3fef3a37f0000000000000000000000000000000000000000000000000000000000000000836040518363ffffffff1660e01b8152600401610f8c929190613705565b5f604051808303815f87803b158015610fa3575f5ffd5b505af1158015610fb5573d5f5f3e3d5ffd5b50505050610ff9565b6040517f08c379a0000000000000000000000000000000000000000000000000000000008152600401610ff09061379c565b60405180910390fd5b5b505b61100633846123e6565b7f000000000000000000000000000000000000000000000000000000000000000073ffffffffffffffffffffffffffffffffffffffff1663a9059cbb33846040518363ffffffff1660e01b8152600401611061929190613705565b6020604051808303815f875af115801561107d573d5f5f3e3d5ffd5b505050506040513d601f19601f820116820180604052508101906110a191906135d4565b6110e0576040517f08c379a00000000000000000000000000000000000000000000000000000000081526004016110d790613804565b60405180910390fd5b3373ffffffffffffffffffffffffffffffffffffffff167f92ccf450a286a957af52509bc1c9939d1a6a481783e142e41e2499f0bb66ebc68484604051611128929190613822565b60405180910390a250919050565b61113f82610a8a565b61114881612465565b6111528383612479565b50505050565b7f0b84ee281e5cf521a9ad54a86fafe78946b157177e231bd8ae785af4d3b3620f81565b5f6012905090565b61118c612209565b73ffffffffffffffffffffffffffffffffffffffff168173ffffffffffffffffffffffffffffffffffffffff16146111f0576040517f6697b23200000000000000000000000000000000000000000000000000000000815260040160405180910390fd5b6111fa8282612563565b505050565b60075f9054906101000a900473ffffffffffffffffffffffffffffffffffffffff1681565b5f7f0000000000000000000000000000000000000000000000000000000000000000905090565b5f5f1b61125781612465565b61125f61264d565b50565b5f5f1b61126e81612465565b84600660016101000a81548173ffffffffffffffffffffffffffffffffffffffff021916908373ffffffffffffffffffffffffffffffffffffffff1602179055508360085f6101000a81548173ffffffffffffffffffffffffffffffffffffffff021916908373ffffffffffffffffffffffffffffffffffffffff1602179055508260075f6101000a81548173ffffffffffffffffffffffffffffffffffffffff021916908373ffffffffffffffffffffffffffffffffffffffff1602179055508160095f6101000a81548173ffffffffffffffffffffffffffffffffffffffff021916908373ffffffffffffffffffffffffffffffffffffffff1602179055507f000000000000000000000000000000000000000000000000000000000000000073ffffffffffffffffffffffffffffffffffffffff1663095ea7b3867fffffffffffffffffffffffffffffffffffffffffffffffffffffffffffffffff6040518363ffffffff1660e01b81526004016113ea929190613705565b6020604051808303815f875af1158015611406573d5f5f3e3d5ffd5b505050506040513d601f19601f8201168201806040525081019061142a91906135d4565b507f000000000000000000000000000000000000000000000000000000000000000073ffffffffffffffffffffffffffffffffffffffff1663095ea7b3847fffffffffffffffffffffffffffffffffffffffffffffffffffffffffffffffff6040518363ffffffff1660e01b81526004016114a6929190613705565b6020604051808303815f875af11580156114c2573d5f5f3e3d5ffd5b505050506040513d601f19601f820116820180604052508101906114e691906135d4565b505050505050565b5f60065f9054906101000a900460ff16905090565b60095f9054906101000a900473ffffffffffffffffffffffffffffffffffffffff1681565b5f5f5f8373ffffffffffffffffffffffffffffffffffffffff1673ffffffffffffffffffffffffffffffffffffffff1681526020019081526020015f20549050919050565b5f5f1b61157981612465565b6115816126ae565b50565b5f5f61158e610a2f565b90505f81036115a857670de0b6b3a76400009150506115d2565b80670de0b6b3a76400006115ba61065b565b6115c491906135ff565b6115ce919061366d565b9150505b90565b5f60055f8481526020019081526020015f205f015f8373ffffffffffffffffffffffffffffffffffffffff1673ffffffffffffffffffffffffffffffffffffffff1681526020019081526020015f205f9054906101000a900460ff16905092915050565b5f5f1b61164581612465565b61164d612710565b5f73ffffffffffffffffffffffffffffffffffffffff168373ffffffffffffffffffffffffffffffffffffffff16036116bb576040517f08c379a00000000000000000000000000000000000000000000000000000000081526004016116b290613893565b60405180910390fd5b7f000000000000000000000000000000000000000000000000000000000000000073ffffffffffffffffffffffffffffffffffffffff1663a9059cbb84846040518363ffffffff1660e01b8152600401611716929190613705565b6020604051808303815f875af1158015611732573d5f5f3e3d5ffd5b505050506040513d601f19601f8201168201806040525081019061175691906135d4565b611795576040517f08c379a000000000000000000000000000000000000000000000000000000000815260040161178c90613804565b60405180910390fd5b8273ffffffffffffffffffffffffffffffffffffffff167f23d6711a1d031134a36921253c75aa59e967d38e369ac625992824315e204f20836040516117db9190612e3a565b60405180910390a2505050565b6060600480546117f79061357a565b80601f01602080910402602001604051908101604052809291908181526020018280546118239061357a565b801561186e5780601f106118455761010080835404028352916020019161186e565b820191905f5260205f20905b81548152906001019060200180831161185157829003601f168201915b5050505050905090565b600660019054906101000a900473ffffffffffffffffffffffffffffffffffffffff1681565b60085f9054906101000a900473ffffffffffffffffffffffffffffffffffffffff1681565b5f5f1b81565b5f5f6118d3612209565b90506118e08185856122b5565b600191505092915050565b5f6118f46123a5565b7f000000000000000000000000000000000000000000000000000000000000000073ffffffffffffffffffffffffffffffffffffffff1663a200e5d0336040518263ffffffff1660e01b815260040161194d919061325f565b602060405180830381865afa158015611968573d5f5f3e3d5ffd5b505050506040513d601f19601f8201168201806040525081019061198c91906135d4565b6119c2576040517f7928610300000000000000000000000000000000000000000000000000000000815260040160405180910390fd5b5f7f000000000000000000000000000000000000000000000000000000000000000073ffffffffffffffffffffffffffffffffffffffff166307d9b4336040518163ffffffff1660e01b81526004015f60405180830381865afa158015611a2b573d5f5f3e3d5ffd5b505050506040513d5f823e3d601f19601f82011682018060405250810190611a5391906139f5565b5050905060558160ff1610611a94576040517fe54d238700000000000000000000000000000000000000000000000000000000815260040160405180910390fd5b7f000000000000000000000000000000000000000000000000000000000000000073ffffffffffffffffffffffffffffffffffffffff1663d80945666040518163ffffffff1660e01b8152600401602060405180830381865afa158015611afd573d5f5f3e3d5ffd5b505050506040513d601f19601f82011682018060405250810190611b2191906135d4565b611b57576040517f945e926800000000000000000000000000000000000000000000000000000000815260040160405180910390fd5b5f611b60610a2f565b90505f8103611b7157839250611b92565b611b7961065b565b8185611b8591906135ff565b611b8f919061366d565b92505b7f000000000000000000000000000000000000000000000000000000000000000073ffffffffffffffffffffffffffffffffffffffff166323b872dd3330876040518463ffffffff1660e01b8152600401611bef93929190613a61565b6020604051808303815f875af1158015611c0b573d5f5f3e3d5ffd5b505050506040513d601f19601f82011682018060405250810190611c2f91906135d4565b611c6e576040517f08c379a0000000000000000000000000000000000000000000000000000000008152600401611c6590613804565b60405180910390fd5b611c783384612750565b3373ffffffffffffffffffffffffffffffffffffffff167f73a19dd210f1a7f902193214c0ee91dd35ee5b4d920cba8d519eca65a7b488ca8585604051611cc0929190613822565b60405180910390a25050919050565b7f0b84ee281e5cf521a9ad54a86fafe78946b157177e231bd8ae785af4d3b3620f611cf981612465565b611d016123a5565b5f7f000000000000000000000000000000000000000000000000000000000000000073ffffffffffffffffffffffffffffffffffffffff166307d9b4336040518163ffffffff1660e01b81526004015f60405180830381865afa158015611d6a573d5f5f3e3d5ffd5b505050506040513d5f823e3d601f19601f82011682018060405250810190611d9291906139f5565b50509050605a8160ff1610611dd3576040517fe54d238700000000000000000000000000000000000000000000000000000000815260040160405180910390fd5b5f851115611e9c57600660019054906101000a900473ffffffffffffffffffffffffffffffffffffffff1673ffffffffffffffffffffffffffffffffffffffff166369328dec7f000000000000000000000000000000000000000000000000000000000000000087306040518463ffffffff1660e01b8152600401611e5a939291906136d0565b6020604051808303815f875af1158015611e76573d5f5f3e3d5ffd5b505050506040513d601f19601f82011682018060405250810190611e9a91906134c2565b505b5f831115611f4e5760075f9054906101000a900473ffffffffffffffffffffffffffffffffffffffff1673ffffffffffffffffffffffffffffffffffffffff1663f3fef3a37f0000000000000000000000000000000000000000000000000000000000000000856040518363ffffffff1660e01b8152600401611f20929190613705565b5f604051808303815f87803b158015611f37575f5ffd5b505af1158015611f49573d5f5f3e3d5ffd5b505050505b5f86111561200557600660019054906101000a900473ffffffffffffffffffffffffffffffffffffffff1673ffffffffffffffffffffffffffffffffffffffff1663617ba0377f000000000000000000000000000000000000000000000000000000000000000088305f6040518563ffffffff1660e01b8152600401611fd79493929190613adc565b5f604051808303815f87803b158015611fee575f5ffd5b505af1158015612000573d5f5f3e3d5ffd5b505050505b5f8411156120b75760075f9054906101000a900473ffffffffffffffffffffffffffffffffffffffff1673ffffffffffffffffffffffffffffffffffffffff1663f2b9fdb87f0000000000000000000000000000000000000000000000000000000000000000866040518363ffffffff1660e01b8152600401612089929190613705565b5f604051808303815f87803b1580156120a0575f5ffd5b505af11580156120b2573d5f5f3e3d5ffd5b505050505b7f1d8ef97cc78cd4f7f8293526eb619260c0edd35c7ddec7a4415ad95d53d504e98888426040516120ea93929190613b59565b60405180910390a15050505050505050565b61210582610a8a565b61210e81612465565b6121188383612563565b50505050565b5f60015f8473ffffffffffffffffffffffffffffffffffffffff1673ffffffffffffffffffffffffffffffffffffffff1681526020019081526020015f205f8373ffffffffffffffffffffffffffffffffffffffff1673ffffffffffffffffffffffffffffffffffffffff1681526020019081526020015f2054905092915050565b5f7f01ffc9a7000000000000000000000000000000000000000000000000000000007bffffffffffffffffffffffffffffffffffffffffffffffffffffffff1916827bffffffffffffffffffffffffffffffffffffffffffffffffffffffff1916149050919050565b5f33905090565b61221d83838360016127cf565b505050565b5f61222d848461211e565b90507fffffffffffffffffffffffffffffffffffffffffffffffffffffffffffffffff8110156122af57818110156122a0578281836040517ffb8f41b200000000000000000000000000000000000000000000000000000000815260040161229793929190613b89565b60405180910390fd5b6122ae84848484035f6127cf565b5b50505050565b5f73ffffffffffffffffffffffffffffffffffffffff168373ffffffffffffffffffffffffffffffffffffffff1603612325575f6040517f96c6fd1e00000000000000000000000000000000000000000000000000000000815260040161231c919061325f565b60405180910390fd5b5f73ffffffffffffffffffffffffffffffffffffffff168273ffffffffffffffffffffffffffffffffffffffff1603612395575f6040517fec442f0500000000000000000000000000000000000000000000000000000000815260040161238c919061325f565b60405180910390fd5b6123a083838361299e565b505050565b6123ad6114ee565b156123e4576040517fd93c066500000000000000000000000000000000000000000000000000000000815260040160405180910390fd5b565b5f73ffffffffffffffffffffffffffffffffffffffff168273ffffffffffffffffffffffffffffffffffffffff1603612456575f6040517f96c6fd1e00000000000000000000000000000000000000000000000000000000815260040161244d919061325f565b60405180910390fd5b612461825f8361299e565b5050565b61247681612471612209565b612bb8565b50565b5f61248483836115d5565b61255957600160055f8581526020019081526020015f205f015f8473ffffffffffffffffffffffffffffffffffffffff1673ffffffffffffffffffffffffffffffffffffffff1681526020019081526020015f205f6101000a81548160ff0219169083151502179055506124f6612209565b73ffffffffffffffffffffffffffffffffffffffff168273ffffffffffffffffffffffffffffffffffffffff16847f2f8788117e7eff1d82e926ec794901d17c78024a50270940304540a733656f0d60405160405180910390a46001905061255d565b5f90505b92915050565b5f61256e83836115d5565b15612643575f60055f8581526020019081526020015f205f015f8473ffffffffffffffffffffffffffffffffffffffff1673ffffffffffffffffffffffffffffffffffffffff1681526020019081526020015f205f6101000a81548160ff0219169083151502179055506125e0612209565b73ffffffffffffffffffffffffffffffffffffffff168273ffffffffffffffffffffffffffffffffffffffff16847ff6391f5c32d9c69d2a47ea670b442974b53935d1edc7fd64eb21e047a839171b60405160405180910390a460019050612647565b5f90505b92915050565b612655612710565b5f60065f6101000a81548160ff0219169083151502179055507f5db9ee0a495bf2e6ff9c91a7834c1ba4fdd244a5e8aa4e537bd38aeae4b073aa612697612209565b6040516126a4919061325f565b60405180910390a1565b6126b66123a5565b600160065f6101000a81548160ff0219169083151502179055507f62e78cea01bee320cd4e420270b5ea74000d11b0c9f74754ebdbfc544b05a2586126f9612209565b604051612706919061325f565b60405180910390a1565b6127186114ee565b61274e576040517f8dfc202b00000000000000000000000000000000000000000000000000000000815260040160405180910390fd5b565b5f73ffffffffffffffffffffffffffffffffffffffff168273ffffffffffffffffffffffffffffffffffffffff16036127c0575f6040517fec442f050000000000000000000000000000000000000000000000000000000081526004016127b7919061325f565b60405180910390fd5b6127cb5f838361299e565b5050565b5f73ffffffffffffffffffffffffffffffffffffffff168473ffffffffffffffffffffffffffffffffffffffff160361283f575f6040517fe602df05000000000000000000000000000000000000000000000000000000008152600401612836919061325f565b60405180910390fd5b5f73ffffffffffffffffffffffffffffffffffffffff168373ffffffffffffffffffffffffffffffffffffffff16036128af575f6040517f94280d620000000000000000000000000000000000000000000000000000000081526004016128a6919061325f565b60405180910390fd5b8160015f8673ffffffffffffffffffffffffffffffffffffffff1673ffffffffffffffffffffffffffffffffffffffff1681526020019081526020015f205f8573ffffffffffffffffffffffffffffffffffffffff1673ffffffffffffffffffffffffffffffffffffffff1681526020019081526020015f20819055508015612998578273ffffffffffffffffffffffffffffffffffffffff168473ffffffffffffffffffffffffffffffffffffffff167f8c5be1e5ebec7d5bd14f71427d1e84f3dd0314c0f7b2291e5b200ac8c7c3b9258460405161298f9190612e3a565b60405180910390a35b50505050565b5f73ffffffffffffffffffffffffffffffffffffffff168373ffffffffffffffffffffffffffffffffffffffff1614158015612a0657505f73ffffffffffffffffffffffffffffffffffffffff168273ffffffffffffffffffffffffffffffffffffffff1614155b15612ba8577f000000000000000000000000000000000000000000000000000000000000000073ffffffffffffffffffffffffffffffffffffffff1663a200e5d0846040518263ffffffff1660e01b8152600401612a64919061325f565b602060405180830381865afa158015612a7f573d5f5f3e3d5ffd5b505050506040513d601f19601f82011682018060405250810190612aa391906135d4565b612ad9576040517f7928610300000000000000000000000000000000000000000000000000000000815260040160405180910390fd5b7f000000000000000000000000000000000000000000000000000000000000000073ffffffffffffffffffffffffffffffffffffffff1663a200e5d0836040518263ffffffff1660e01b8152600401612b32919061325f565b602060405180830381865afa158015612b4d573d5f5f3e3d5ffd5b505050506040513d601f19601f82011682018060405250810190612b7191906135d4565b612ba7576040517f7928610300000000000000000000000000000000000000000000000000000000815260040160405180910390fd5b5b612bb3838383612c09565b505050565b612bc282826115d5565b612c055780826040517fe2517d3f000000000000000000000000000000000000000000000000000000008152600401612bfc929190613bbe565b60405180910390fd5b5050565b5f73ffffffffffffffffffffffffffffffffffffffff168373ffffffffffffffffffffffffffffffffffffffff1603612c59578060025f828254612c4d919061351a565b92505081905550612d27565b5f5f5f8573ffffffffffffffffffffffffffffffffffffffff1673ffffffffffffffffffffffffffffffffffffffff1681526020019081526020015f2054905081811015612ce2578381836040517fe450d38c000000000000000000000000000000000000000000000000000000008152600401612cd993929190613b89565b60405180910390fd5b8181035f5f8673ffffffffffffffffffffffffffffffffffffffff1673ffffffffffffffffffffffffffffffffffffffff1681526020019081526020015f2081905550505b5f73ffffffffffffffffffffffffffffffffffffffff168273ffffffffffffffffffffffffffffffffffffffff1603612d6e578060025f8282540392505081905550612db8565b805f5f8473ffffffffffffffffffffffffffffffffffffffff1673ffffffffffffffffffffffffffffffffffffffff1681526020019081526020015f205f82825401925050819055505b8173ffffffffffffffffffffffffffffffffffffffff168373ffffffffffffffffffffffffffffffffffffffff167fddf252ad1be2c89b69c2b068fc378daa952ba7f163c4a11628f55a4df523b3ef83604051612e159190612e3a565b60405180910390a3505050565b5f819050919050565b612e3481612e22565b82525050565b5f602082019050612e4d5f830184612e2b565b92915050565b5f604051905090565b5f5ffd5b5f5ffd5b5f7fffffffff0000000000000000000000000000000000000000000000000000000082169050919050565b612e9881612e64565b8114612ea2575f5ffd5b50565b5f81359050612eb381612e8f565b92915050565b5f60208284031215612ece57612ecd612e5c565b5b5f612edb84828501612ea5565b91505092915050565b5f8115159050919050565b612ef881612ee4565b82525050565b5f602082019050612f115f830184612eef565b92915050565b5f81519050919050565b5f82825260208201905092915050565b8281835e5f83830152505050565b5f601f19601f8301169050919050565b5f612f5982612f17565b612f638185612f21565b9350612f73818560208601612f31565b612f7c81612f3f565b840191505092915050565b5f6020820190508181035f830152612f9f8184612f4f565b905092915050565b5f73ffffffffffffffffffffffffffffffffffffffff82169050919050565b5f612fd082612fa7565b9050919050565b612fe081612fc6565b8114612fea575f5ffd5b50565b5f81359050612ffb81612fd7565b92915050565b61300a81612e22565b8114613014575f5ffd5b50565b5f8135905061302581613001565b92915050565b5f5f6040838503121561304157613040612e5c565b5b5f61304e85828601612fed565b925050602061305f85828601613017565b9150509250929050565b5f819050919050565b61307b81613069565b82525050565b5f6020820190506130945f830184613072565b92915050565b5f5f5f606084860312156130b1576130b0612e5c565b5b5f6130be86828701612fed565b93505060206130cf86828701612fed565b92505060406130e086828701613017565b9150509250925092565b6130f381613069565b81146130fd575f5ffd5b50565b5f8135905061310e816130ea565b92915050565b5f6020828403121561312957613128612e5c565b5b5f61313684828501613100565b91505092915050565b5f6020828403121561315457613153612e5c565b5b5f61316184828501613017565b91505092915050565b5f5f604083850312156131805761317f612e5c565b5b5f61318d85828601613100565b925050602061319e85828601612fed565b9150509250929050565b5f60ff82169050919050565b6131bd816131a8565b82525050565b5f6020820190506131d65f8301846131b4565b92915050565b5f819050919050565b5f6131ff6131fa6131f584612fa7565b6131dc565b612fa7565b9050919050565b5f613210826131e5565b9050919050565b5f61322182613206565b9050919050565b61323181613217565b82525050565b5f60208201905061324a5f830184613228565b92915050565b61325981612fc6565b82525050565b5f6020820190506132725f830184613250565b92915050565b5f5f5f5f608085870312156132905761328f612e5c565b5b5f61329d87828801612fed565b94505060206132ae87828801612fed565b93505060406132bf87828801612fed565b92505060606132d087828801612fed565b91505092959194509250565b5f6132e682613206565b9050919050565b6132f6816132dc565b82525050565b5f60208201905061330f5f8301846132ed565b92915050565b5f6020828403121561332a57613329612e5c565b5b5f61333784828501612fed565b91505092915050565b5f61334a82613206565b9050919050565b61335a81613340565b82525050565b5f6020820190506133735f830184613351565b92915050565b5f5ffd5b5f5ffd5b5f5ffd5b5f5f83601f84011261339a57613399613379565b5b8235905067ffffffffffffffff8111156133b7576133b661337d565b5b6020830191508360018202830111156133d3576133d2613381565b5b9250929050565b5f5f5f5f5f5f60a087890312156133f4576133f3612e5c565b5b5f87013567ffffffffffffffff81111561341157613410612e60565b5b61341d89828a01613385565b9650965050602061343089828a01613017565b945050604061344189828a01613017565b935050606061345289828a01613017565b925050608061346389828a01613017565b9150509295509295509295565b5f5f6040838503121561348657613485612e5c565b5b5f61349385828601612fed565b92505060206134a485828601612fed565b9150509250929050565b5f815190506134bc81613001565b92915050565b5f602082840312156134d7576134d6612e5c565b5b5f6134e4848285016134ae565b91505092915050565b7f4e487b71000000000000000000000000000000000000000000000000000000005f52601160045260245ffd5b5f61352482612e22565b915061352f83612e22565b9250828201905080821115613547576135466134ed565b5b92915050565b7f4e487b71000000000000000000000000000000000000000000000000000000005f52602260045260245ffd5b5f600282049050600182168061359157607f821691505b6020821081036135a4576135a361354d565b5b50919050565b6135b381612ee4565b81146135bd575f5ffd5b50565b5f815190506135ce816135aa565b92915050565b5f602082840312156135e9576135e8612e5c565b5b5f6135f6848285016135c0565b91505092915050565b5f61360982612e22565b915061361483612e22565b925082820261362281612e22565b91508282048414831517613639576136386134ed565b5b5092915050565b7f4e487b71000000000000000000000000000000000000000000000000000000005f52601260045260245ffd5b5f61367782612e22565b915061368283612e22565b92508261369257613691613640565b5b828204905092915050565b5f6136a782612e22565b91506136b283612e22565b92508282039050818111156136ca576136c96134ed565b5b92915050565b5f6060820190506136e35f830186613250565b6136f06020830185612e2b565b6136fd6040830184613250565b949350505050565b5f6040820190506137185f830185613250565b6137256020830184612e2b565b9392505050565b7f496e73756666696369656e74206c6971756964697479206163726f73732070725f8201527f6f746f636f6c7300000000000000000000000000000000000000000000000000602082015250565b5f613786602783612f21565b91506137918261372c565b604082019050919050565b5f6020820190508181035f8301526137b38161377a565b9050919050565b7f5472616e73666572206661696c656400000000000000000000000000000000005f82015250565b5f6137ee600f83612f21565b91506137f9826137ba565b602082019050919050565b5f6020820190508181035f83015261381b816137e2565b9050919050565b5f6040820190506138355f830185612e2b565b6138426020830184612e2b565b9392505050565b7f496e76616c6964206164647265737300000000000000000000000000000000005f82015250565b5f61387d600f83612f21565b915061388882613849565b602082019050919050565b5f6020820190508181035f8301526138aa81613871565b9050919050565b6138ba816131a8565b81146138c4575f5ffd5b50565b5f815190506138d5816138b1565b92915050565b5f5ffd5b7f4e487b71000000000000000000000000000000000000000000000000000000005f52604160045260245ffd5b61391582612f3f565b810181811067ffffffffffffffff82111715613934576139336138df565b5b80604052505050565b5f613946612e53565b9050613952828261390c565b919050565b5f67ffffffffffffffff821115613971576139706138df565b5b61397a82612f3f565b9050602081019050919050565b5f61399961399484613957565b61393d565b9050828152602081018484840111156139b5576139b46138db565b5b6139c0848285612f31565b509392505050565b5f82601f8301126139dc576139db613379565b5b81516139ec848260208601613987565b91505092915050565b5f5f5f60608486031215613a0c57613a0b612e5c565b5b5f613a19868287016138c7565b9350506020613a2a868287016134ae565b925050604084015167ffffffffffffffff811115613a4b57613a4a612e60565b5b613a57868287016139c8565b9150509250925092565b5f606082019050613a745f830186613250565b613a816020830185613250565b613a8e6040830184612e2b565b949350505050565b5f819050919050565b5f61ffff82169050919050565b5f613ac6613ac1613abc84613a96565b6131dc565b613a9f565b9050919050565b613ad681613aac565b82525050565b5f608082019050613aef5f830187613250565b613afc6020830186612e2b565b613b096040830185613250565b613b166060830184613acd565b95945050505050565b828183375f83830152505050565b5f613b388385612f21565b9350613b45838584613b1f565b613b4e83612f3f565b840190509392505050565b5f6040820190508181035f830152613b72818587613b2d565b9050613b816020830184612e2b565b949350505050565b5f606082019050613b9c5f830186613250565b613ba96020830185612e2b565b613bb66040830184612e2b565b949350505050565b5f604082019050613bd15f830185613250565b613bde6020830184613072565b939250505056fea26469706673582212203ce8f2b16f70de90dbce4394fec61cc0ff110768c6c6d357681e063a9b8c6c8964736f6c634300081e0033","linkReferences":{}},"methodIdentifiers":{"CRE_WORKFLOW_ROLE()":"1aaf1365","DEFAULT_ADMIN_ROLE()":"a217fddf","FUND_MANAGER_ROLE()":"2f83a6bc","aToken()":"a0c1f15e","aavePool()":"a03e4bc3","allowance(address,address)":"dd62ed3e","approve(address,uint256)":"095ea7b3","asset()":"38d52e0f","balanceOf(address)":"70a08231","cToken()":"69e527da","compoundReserve()":"36aa6928","decimals()":"313ce567","deposit(uint256)":"b6b55f25","emergencyWithdraw(address,uint256)":"95ccea67","getRoleAdmin(bytes32)":"248a9ca3","grantRole(bytes32,address)":"2f2ff15d","hasRole(bytes32,address)":"91d14854","name()":"06fdde03","pause()":"8456cb59","paused()":"5c975abb","rebalance(string,uint256,uint256,uint256,uint256)":"cac1e251","renounceRole(bytes32,address)":"36568abe","revokeRole(bytes32,address)":"d547741f","setMockProtocols(address,address,address,address)":"57002f0f","sharePrice()":"87269729","supportsInterface(bytes4)":"01ffc9a7","symbol()":"95d89b41","totalAssets()":"01e1d114","totalSupply()":"18160ddd","transfer(address,uint256)":"a9059cbb","transferFrom(address,address,uint256)":"23b872dd","unpause()":"3f4ba83a","withdraw(uint256)":"2e1a7d4d"},"id":30}